{
  "address": "0x8198f5d8F8CfFE8f9C413d98a0A55aEB8ab9FbB7",
  "abi": [
    {
      "inputs": [
        {
          "internalType": "address",
          "name": "_tTrust",
          "type": "address"
        },
        {
          "internalType": "address",
          "name": "_tswp",
          "type": "address"
        }
      ],
      "stateMutability": "nonpayable",
      "type": "constructor"
    },
    {
      "inputs": [
        {
          "internalType": "address",
          "name": "target",
          "type": "address"
        }
      ],
      "name": "AddressEmptyCode",
      "type": "error"
    },
    {
      "inputs": [
        {
          "internalType": "address",
          "name": "account",
          "type": "address"
        }
      ],
      "name": "AddressInsufficientBalance",
      "type": "error"
    },
    {
      "inputs": [
        {
          "internalType": "address",
          "name": "spender",
          "type": "address"
        },
        {
          "internalType": "uint256",
          "name": "allowance",
          "type": "uint256"
        },
        {
          "internalType": "uint256",
          "name": "needed",
          "type": "uint256"
        }
      ],
      "name": "ERC20InsufficientAllowance",
      "type": "error"
    },
    {
      "inputs": [
        {
          "internalType": "address",
          "name": "sender",
          "type": "address"
        },
        {
          "internalType": "uint256",
          "name": "balance",
          "type": "uint256"
        },
        {
          "internalType": "uint256",
          "name": "needed",
          "type": "uint256"
        }
      ],
      "name": "ERC20InsufficientBalance",
      "type": "error"
    },
    {
      "inputs": [
        {
          "internalType": "address",
          "name": "approver",
          "type": "address"
        }
      ],
      "name": "ERC20InvalidApprover",
      "type": "error"
    },
    {
      "inputs": [
        {
          "internalType": "address",
          "name": "receiver",
          "type": "address"
        }
      ],
      "name": "ERC20InvalidReceiver",
      "type": "error"
    },
    {
      "inputs": [
        {
          "internalType": "address",
          "name": "sender",
          "type": "address"
        }
      ],
      "name": "ERC20InvalidSender",
      "type": "error"
    },
    {
      "inputs": [
        {
          "internalType": "address",
          "name": "spender",
          "type": "address"
        }
      ],
      "name": "ERC20InvalidSpender",
      "type": "error"
    },
    {
      "inputs": [],
      "name": "EnforcedPause",
      "type": "error"
    },
    {
      "inputs": [],
      "name": "ExpectedPause",
      "type": "error"
    },
    {
      "inputs": [],
      "name": "FailedInnerCall",
      "type": "error"
    },
    {
      "inputs": [
        {
          "internalType": "address",
          "name": "owner",
          "type": "address"
        }
      ],
      "name": "OwnableInvalidOwner",
      "type": "error"
    },
    {
      "inputs": [
        {
          "internalType": "address",
          "name": "account",
          "type": "address"
        }
      ],
      "name": "OwnableUnauthorizedAccount",
      "type": "error"
    },
    {
      "inputs": [],
      "name": "ReentrancyGuardReentrantCall",
      "type": "error"
    },
    {
      "inputs": [
        {
          "internalType": "address",
          "name": "token",
          "type": "address"
        }
      ],
      "name": "SafeERC20FailedOperation",
      "type": "error"
    },
    {
      "anonymous": false,
      "inputs": [
        {
          "indexed": true,
          "internalType": "address",
          "name": "owner",
          "type": "address"
        },
        {
          "indexed": true,
          "internalType": "address",
          "name": "spender",
          "type": "address"
        },
        {
          "indexed": false,
          "internalType": "uint256",
          "name": "value",
          "type": "uint256"
        }
      ],
      "name": "Approval",
      "type": "event"
    },
    {
      "anonymous": false,
      "inputs": [
        {
          "indexed": true,
          "internalType": "address",
          "name": "provider",
          "type": "address"
        },
        {
          "indexed": false,
          "internalType": "uint256",
          "name": "tTrustAmount",
          "type": "uint256"
        },
        {
          "indexed": false,
          "internalType": "uint256",
          "name": "tswpAmount",
          "type": "uint256"
        },
        {
          "indexed": false,
          "internalType": "uint256",
          "name": "liquidity",
          "type": "uint256"
        }
      ],
      "name": "LiquidityAdded",
      "type": "event"
    },
    {
      "anonymous": false,
      "inputs": [
        {
          "indexed": true,
          "internalType": "address",
          "name": "provider",
          "type": "address"
        },
        {
          "indexed": false,
          "internalType": "uint256",
          "name": "tTrustAmount",
          "type": "uint256"
        },
        {
          "indexed": false,
          "internalType": "uint256",
          "name": "tswpAmount",
          "type": "uint256"
        },
        {
          "indexed": false,
          "internalType": "uint256",
          "name": "liquidity",
          "type": "uint256"
        }
      ],
      "name": "LiquidityRemoved",
      "type": "event"
    },
    {
      "anonymous": false,
      "inputs": [
        {
          "indexed": true,
          "internalType": "address",
          "name": "previousOwner",
          "type": "address"
        },
        {
          "indexed": true,
          "internalType": "address",
          "name": "newOwner",
          "type": "address"
        }
      ],
      "name": "OwnershipTransferred",
      "type": "event"
    },
    {
      "anonymous": false,
      "inputs": [
        {
          "indexed": false,
          "internalType": "address",
          "name": "account",
          "type": "address"
        }
      ],
      "name": "Paused",
      "type": "event"
    },
    {
      "anonymous": false,
      "inputs": [
        {
          "indexed": true,
          "internalType": "address",
          "name": "user",
          "type": "address"
        },
        {
          "indexed": true,
          "internalType": "address",
          "name": "tokenIn",
          "type": "address"
        },
        {
          "indexed": true,
          "internalType": "address",
          "name": "tokenOut",
          "type": "address"
        },
        {
          "indexed": false,
          "internalType": "uint256",
          "name": "amountIn",
          "type": "uint256"
        },
        {
          "indexed": false,
          "internalType": "uint256",
          "name": "amountOut",
          "type": "uint256"
        },
        {
          "indexed": false,
          "internalType": "uint256",
          "name": "fee",
          "type": "uint256"
        }
      ],
      "name": "Swap",
      "type": "event"
    },
    {
      "anonymous": false,
      "inputs": [
        {
          "indexed": true,
          "internalType": "address",
          "name": "from",
          "type": "address"
        },
        {
          "indexed": true,
          "internalType": "address",
          "name": "to",
          "type": "address"
        },
        {
          "indexed": false,
          "internalType": "uint256",
          "name": "value",
          "type": "uint256"
        }
      ],
      "name": "Transfer",
      "type": "event"
    },
    {
      "anonymous": false,
      "inputs": [
        {
          "indexed": false,
          "internalType": "address",
          "name": "account",
          "type": "address"
        }
      ],
      "name": "Unpaused",
      "type": "event"
    },
    {
      "inputs": [],
      "name": "BASIS_POINTS",
      "outputs": [
        {
          "internalType": "uint256",
          "name": "",
          "type": "uint256"
        }
      ],
      "stateMutability": "view",
      "type": "function"
    },
    {
      "inputs": [],
      "name": "FEE_RATE",
      "outputs": [
        {
          "internalType": "uint256",
          "name": "",
          "type": "uint256"
        }
      ],
      "stateMutability": "view",
      "type": "function"
    },
    {
      "inputs": [],
      "name": "MINIMUM_LIQUIDITY",
      "outputs": [
        {
          "internalType": "uint256",
          "name": "",
          "type": "uint256"
        }
      ],
      "stateMutability": "view",
      "type": "function"
    },
    {
      "inputs": [],
      "name": "TSWP",
      "outputs": [
        {
          "internalType": "contract IERC20",
          "name": "",
          "type": "address"
        }
      ],
      "stateMutability": "view",
      "type": "function"
    },
    {
      "inputs": [
        {
          "internalType": "uint256",
          "name": "_tTrustAmount",
          "type": "uint256"
        },
        {
          "internalType": "uint256",
          "name": "_tswpAmount",
          "type": "uint256"
        }
      ],
      "name": "addLiquidity",
      "outputs": [
        {
          "internalType": "uint256",
          "name": "liquidity",
          "type": "uint256"
        }
      ],
      "stateMutability": "payable",
      "type": "function"
    },
    {
      "inputs": [
        {
          "internalType": "address",
          "name": "owner",
          "type": "address"
        },
        {
          "internalType": "address",
          "name": "spender",
          "type": "address"
        }
      ],
      "name": "allowance",
      "outputs": [
        {
          "internalType": "uint256",
          "name": "",
          "type": "uint256"
        }
      ],
      "stateMutability": "view",
      "type": "function"
    },
    {
      "inputs": [
        {
          "internalType": "address",
          "name": "spender",
          "type": "address"
        },
        {
          "internalType": "uint256",
          "name": "value",
          "type": "uint256"
        }
      ],
      "name": "approve",
      "outputs": [
        {
          "internalType": "bool",
          "name": "",
          "type": "bool"
        }
      ],
      "stateMutability": "nonpayable",
      "type": "function"
    },
    {
      "inputs": [
        {
          "internalType": "address",
          "name": "account",
          "type": "address"
        }
      ],
      "name": "balanceOf",
      "outputs": [
        {
          "internalType": "uint256",
          "name": "",
          "type": "uint256"
        }
      ],
      "stateMutability": "view",
      "type": "function"
    },
    {
      "inputs": [],
      "name": "decimals",
      "outputs": [
        {
          "internalType": "uint8",
          "name": "",
          "type": "uint8"
        }
      ],
      "stateMutability": "view",
      "type": "function"
    },
    {
      "inputs": [
        {
          "internalType": "address",
          "name": "_token",
          "type": "address"
        },
        {
          "internalType": "uint256",
          "name": "_amount",
          "type": "uint256"
        }
      ],
      "name": "emergencyWithdraw",
      "outputs": [],
      "stateMutability": "nonpayable",
      "type": "function"
    },
    {
      "inputs": [
        {
          "internalType": "address",
          "name": "_tokenIn",
          "type": "address"
        },
        {
          "internalType": "uint256",
          "name": "_amountIn",
          "type": "uint256"
        }
      ],
      "name": "getAmountOut",
      "outputs": [
        {
          "internalType": "uint256",
          "name": "amountOut",
          "type": "uint256"
        }
      ],
      "stateMutability": "view",
      "type": "function"
    },
    {
      "inputs": [],
      "name": "getDEXStats",
      "outputs": [
        {
          "internalType": "uint256",
          "name": "_tTrustReserve",
          "type": "uint256"
        },
        {
          "internalType": "uint256",
          "name": "_tswpReserve",
          "type": "uint256"
        },
        {
          "internalType": "uint256",
          "name": "_totalVolume",
          "type": "uint256"
        },
        {
          "internalType": "uint256",
          "name": "_totalTrades",
          "type": "uint256"
        },
        {
          "internalType": "uint256",
          "name": "_totalLiquidity",
          "type": "uint256"
        }
      ],
      "stateMutability": "view",
      "type": "function"
    },
    {
      "inputs": [
        {
          "internalType": "address",
          "name": "_token",
          "type": "address"
        }
      ],
      "name": "getPrice",
      "outputs": [
        {
          "internalType": "uint256",
          "name": "price",
          "type": "uint256"
        }
      ],
      "stateMutability": "view",
      "type": "function"
    },
    {
      "inputs": [],
      "name": "kLast",
      "outputs": [
        {
          "internalType": "uint256",
          "name": "",
          "type": "uint256"
        }
      ],
      "stateMutability": "view",
      "type": "function"
    },
    {
      "inputs": [],
      "name": "name",
      "outputs": [
        {
          "internalType": "string",
          "name": "",
          "type": "string"
        }
      ],
      "stateMutability": "view",
      "type": "function"
    },
    {
      "inputs": [],
      "name": "owner",
      "outputs": [
        {
          "internalType": "address",
          "name": "",
          "type": "address"
        }
      ],
      "stateMutability": "view",
      "type": "function"
    },
    {
      "inputs": [],
      "name": "pause",
      "outputs": [],
      "stateMutability": "nonpayable",
      "type": "function"
    },
    {
      "inputs": [],
      "name": "paused",
      "outputs": [
        {
          "internalType": "bool",
          "name": "",
          "type": "bool"
        }
      ],
      "stateMutability": "view",
      "type": "function"
    },
    {
      "inputs": [
        {
          "internalType": "uint256",
          "name": "_liquidity",
          "type": "uint256"
        },
        {
          "internalType": "uint256",
          "name": "_minTTrust",
          "type": "uint256"
        },
        {
          "internalType": "uint256",
          "name": "_minTswp",
          "type": "uint256"
        }
      ],
      "name": "removeLiquidity",
      "outputs": [
        {
          "internalType": "uint256",
          "name": "tTrustAmount",
          "type": "uint256"
        },
        {
          "internalType": "uint256",
          "name": "tswpAmount",
          "type": "uint256"
        }
      ],
      "stateMutability": "nonpayable",
      "type": "function"
    },
    {
      "inputs": [],
      "name": "renounceOwnership",
      "outputs": [],
      "stateMutability": "nonpayable",
      "type": "function"
    },
    {
      "inputs": [
        {
          "internalType": "uint256",
          "name": "_amountIn",
          "type": "uint256"
        },
        {
          "internalType": "uint256",
          "name": "_minAmountOut",
          "type": "uint256"
        }
      ],
      "name": "swapTrustForTswp",
      "outputs": [],
      "stateMutability": "payable",
      "type": "function"
    },
    {
      "inputs": [
        {
          "internalType": "uint256",
          "name": "_amountIn",
          "type": "uint256"
        },
        {
          "internalType": "uint256",
          "name": "_minAmountOut",
          "type": "uint256"
        }
      ],
      "name": "swapTswpForTrust",
      "outputs": [],
      "stateMutability": "nonpayable",
      "type": "function"
    },
    {
      "inputs": [],
      "name": "symbol",
      "outputs": [
        {
          "internalType": "string",
          "name": "",
          "type": "string"
        }
      ],
      "stateMutability": "view",
      "type": "function"
    },
    {
      "inputs": [],
      "name": "tTRUST",
      "outputs": [
        {
          "internalType": "contract IERC20",
          "name": "",
          "type": "address"
        }
      ],
      "stateMutability": "view",
      "type": "function"
    },
    {
      "inputs": [],
      "name": "tTrustReserve",
      "outputs": [
        {
          "internalType": "uint256",
          "name": "",
          "type": "uint256"
        }
      ],
      "stateMutability": "view",
      "type": "function"
    },
    {
      "inputs": [],
      "name": "totalSupply",
      "outputs": [
        {
          "internalType": "uint256",
          "name": "",
          "type": "uint256"
        }
      ],
      "stateMutability": "view",
      "type": "function"
    },
    {
      "inputs": [],
      "name": "totalTrades",
      "outputs": [
        {
          "internalType": "uint256",
          "name": "",
          "type": "uint256"
        }
      ],
      "stateMutability": "view",
      "type": "function"
    },
    {
      "inputs": [],
      "name": "totalVolume",
      "outputs": [
        {
          "internalType": "uint256",
          "name": "",
          "type": "uint256"
        }
      ],
      "stateMutability": "view",
      "type": "function"
    },
    {
      "inputs": [
        {
          "internalType": "address",
          "name": "to",
          "type": "address"
        },
        {
          "internalType": "uint256",
          "name": "value",
          "type": "uint256"
        }
      ],
      "name": "transfer",
      "outputs": [
        {
          "internalType": "bool",
          "name": "",
          "type": "bool"
        }
      ],
      "stateMutability": "nonpayable",
      "type": "function"
    },
    {
      "inputs": [
        {
          "internalType": "address",
          "name": "from",
          "type": "address"
        },
        {
          "internalType": "address",
          "name": "to",
          "type": "address"
        },
        {
          "internalType": "uint256",
          "name": "value",
          "type": "uint256"
        }
      ],
      "name": "transferFrom",
      "outputs": [
        {
          "internalType": "bool",
          "name": "",
          "type": "bool"
        }
      ],
      "stateMutability": "nonpayable",
      "type": "function"
    },
    {
      "inputs": [
        {
          "internalType": "address",
          "name": "newOwner",
          "type": "address"
        }
      ],
      "name": "transferOwnership",
      "outputs": [],
      "stateMutability": "nonpayable",
      "type": "function"
    },
    {
      "inputs": [],
      "name": "tswpReserve",
      "outputs": [
        {
          "internalType": "uint256",
          "name": "",
          "type": "uint256"
        }
      ],
      "stateMutability": "view",
      "type": "function"
    },
    {
      "inputs": [],
      "name": "unpause",
      "outputs": [],
      "stateMutability": "nonpayable",
      "type": "function"
    },
    {
      "stateMutability": "payable",
      "type": "receive"
    }
  ],
  "transactionHash": "0xb9d21370a0e730ba038d059becde7ec9a53a84840dc5388e774916d849237384",
  "args": [
    "0x0000000000000000000000000000000000000000",
    "0xDC11f7E700A4c898AE5CAddB1082cFfa76512aDD"
  ],
  "numDeployments": 1,
  "solcInputHash": "ad5c3c6003b0712132cd9bc65421ad73",
  "bytecode": "0x60c06040523480156200001157600080fd5b5060405162002823380380620028238339810160408190526200003491620001c4565b336040518060400160405280600d81526020016c0545357502d5452555354204c5609c1b815250604051806040016040528060038152602001620544c560ec1b8152508160039081620000889190620002a1565b506004620000978282620002a1565b5050506001600160a01b038116620000ca57604051631e4fbdf760e01b8152600060048201526024015b60405180910390fd5b620000d58162000155565b5060016006556007805460ff191690556001600160a01b0381166200013d5760405162461bcd60e51b815260206004820152601a60248201527f496e76616c6964205453575020746f6b656e20616464726573730000000000006044820152606401620000c1565b6001600160a01b039182166080521660a0526200036d565b600580546001600160a01b038381166001600160a01b0319831681179093556040519116919082907f8be0079c531659141344cd1fd0a4f28419497f9722a3daafe3b4186f6b6457e090600090a35050565b80516001600160a01b0381168114620001bf57600080fd5b919050565b60008060408385031215620001d857600080fd5b620001e383620001a7565b9150620001f360208401620001a7565b90509250929050565b634e487b7160e01b600052604160045260246000fd5b600181811c908216806200022757607f821691505b6020821081036200024857634e487b7160e01b600052602260045260246000fd5b50919050565b601f8211156200029c57600081815260208120601f850160051c81016020861015620002775750805b601f850160051c820191505b81811015620002985782815560010162000283565b5050505b505050565b81516001600160401b03811115620002bd57620002bd620001fc565b620002d581620002ce845462000212565b846200024e565b602080601f8311600181146200030d5760008415620002f45750858301515b600019600386901b1c1916600185901b17855562000298565b600085815260208120601f198616915b828110156200033e578886015182559484019460019091019084016200031d565b50858210156200035d5787850151600019600388901b60f8161c191681555b5050505050600190811b01905550565b60805160a0516123ef62000434600039600081816103f40152818161079401528181610b9401528181610d6101528181610e2e0152818161103001528181611343015281816115f1015281816116d201526117be015260008181610506015281816107590152818161085a01528181610a9001528181610b6001528181610c7b01528181610df901528181611155015281816112250152818161131f015281816113df01528181611491015281816116f601528181611783015261189b01526123ef6000f3fe6080604052600436106101f25760003560e01c80638456cb591161010d578063a9059cbb116100a0578063ca706bcf1161006f578063ca706bcf14610591578063dd62ed3e146105b1578063e1f1c4a7146105f7578063e275c9971461060d578063f2fde38b1461062357600080fd5b8063a9059cbb14610528578063b057da5414610548578063b64f4c1c14610568578063ba9a7a561461057b57600080fd5b806395ccea67116100dc57806395ccea67146104ac57806395d89b41146104cc5780639cd441da146104e1578063a7be29ba146104f457600080fd5b80638456cb591461042e578063857620e1146104435780638c30c08c146104785780638da5cb5b1461048e57600080fd5b80633f4ba83a1161018557806370a082311161015457806370a0823114610381578063715018a6146103b75780637464fc3d146103cc57806380e03f55146103e257600080fd5b80633f4ba83a1461031c57806341976e09146103335780635c975abb146103535780635f81a57c1461036b57600080fd5b806323b872dd116101c157806323b872dd1461028e5780632bd0429b146102ae5780632d11c58a146102eb578063313ce5671461030057600080fd5b806306fdde03146101fe578063095ea7b31461022957806318160ddd146102595780631baddaa31461027857600080fd5b366101f957005b600080fd5b34801561020a57600080fd5b50610213610643565b604051610220919061211f565b60405180910390f35b34801561023557600080fd5b50610249610244366004612169565b6106d5565b6040519015158152602001610220565b34801561026557600080fd5b506002545b604051908152602001610220565b34801561028457600080fd5b5061026a60085481565b34801561029a57600080fd5b506102496102a9366004612193565b6106ef565b3480156102ba57600080fd5b506102c3610715565b604080519586526020860194909452928401919091526060830152608082015260a001610220565b3480156102f757600080fd5b5061026a601e81565b34801561030c57600080fd5b5060405160128152602001610220565b34801561032857600080fd5b50610331610743565b005b34801561033f57600080fd5b5061026a61034e3660046121cf565b610755565b34801561035f57600080fd5b5060075460ff16610249565b34801561037757600080fd5b5061026a600a5481565b34801561038d57600080fd5b5061026a61039c3660046121cf565b6001600160a01b031660009081526020819052604090205490565b3480156103c357600080fd5b506103316108d0565b3480156103d857600080fd5b5061026a600c5481565b3480156103ee57600080fd5b506104167f000000000000000000000000000000000000000000000000000000000000000081565b6040516001600160a01b039091168152602001610220565b34801561043a57600080fd5b506103316108e2565b34801561044f57600080fd5b5061046361045e3660046121ea565b6108f2565b60408051928352602083019190915201610220565b34801561048457600080fd5b5061026a60095481565b34801561049a57600080fd5b506005546001600160a01b0316610416565b3480156104b857600080fd5b506103316104c7366004612169565b610c24565b3480156104d857600080fd5b50610213610c56565b61026a6104ef366004612216565b610c65565b34801561050057600080fd5b506104167f000000000000000000000000000000000000000000000000000000000000000081565b34801561053457600080fd5b50610249610543366004612169565b610fb5565b34801561055457600080fd5b50610331610563366004612216565b610fc3565b610331610576366004612216565b6113cb565b34801561058757600080fd5b5061026a6103e881565b34801561059d57600080fd5b5061026a6105ac366004612169565b61177f565b3480156105bd57600080fd5b5061026a6105cc366004612238565b6001600160a01b03918216600090815260016020908152604080832093909416825291909152205490565b34801561060357600080fd5b5061026a61271081565b34801561061957600080fd5b5061026a600b5481565b34801561062f57600080fd5b5061033161063e3660046121cf565b61195d565b6060600380546106529061226b565b80601f016020809104026020016040519081016040528092919081815260200182805461067e9061226b565b80156106cb5780601f106106a0576101008083540402835291602001916106cb565b820191906000526020600020905b8154815290600101906020018083116106ae57829003601f168201915b5050505050905090565b6000336106e381858561199b565b60019150505b92915050565b6000336106fd8582856119ad565b610708858585611a2b565b60019150505b9392505050565b6000806000806000600854600954600a54600b5461073260025490565b945094509450945094509091929394565b61074b611a8a565b610753611ab7565b565b60007f00000000000000000000000000000000000000000000000000000000000000006001600160a01b0316826001600160a01b031614806107c857507f00000000000000000000000000000000000000000000000000000000000000006001600160a01b0316826001600160a01b0316145b6108095760405162461bcd60e51b815260206004820152600d60248201526c24b73b30b634b2103a37b5b2b760991b60448201526064015b60405180910390fd5b600060085411801561081d57506000600954115b6108585760405162461bcd60e51b815260206004820152600c60248201526b4e6f206c697175696469747960a01b6044820152606401610800565b7f00000000000000000000000000000000000000000000000000000000000000006001600160a01b0316826001600160a01b0316036108b3576008546009546108a990670de0b6b3a76400006122b5565b6106e991906122cc565b6009546008546108a990670de0b6b3a76400006122b5565b919050565b6108d8611a8a565b6107536000611b09565b6108ea611a8a565b610753611b5b565b6000806108fd611b98565b6000851161091d5760405162461bcd60e51b8152600401610800906122ee565b336000908152602081905260409020548511156109755760405162461bcd60e51b8152602060048201526016602482015275496e73756666696369656e74204c5020746f6b656e7360501b6044820152606401610800565b600061098060025490565b9050806008548761099191906122b5565b61099b91906122cc565b925080600954876109ac91906122b5565b6109b691906122cc565b91508483101580156109c85750838210155b610a0a5760405162461bcd60e51b8152602060048201526013602482015272125b9cdd59999a58da595b9d081bdd5d1c1d5d606a1b6044820152606401610800565b6008548311158015610a1e57506009548211155b610a625760405162461bcd60e51b8152602060048201526015602482015274496e73756666696369656e7420726573657276657360581b6044820152606401610800565b610a6c3387611bc2565b82600854610a7a919061231e565b600855600954610a8b90839061231e565b6009557f00000000000000000000000000000000000000000000000000000000000000006001600160a01b0316610b5357604051600090339085908381818185875af1925050503d8060008114610afe576040519150601f19603f3d011682016040523d82523d6000602084013e610b03565b606091505b5050905080610b4d5760405162461bcd60e51b81526020600482015260166024820152751515149554d5081d1c985b9cd9995c8819985a5b195960521b6044820152606401610800565b50610b87565b610b876001600160a01b037f0000000000000000000000000000000000000000000000000000000000000000163385611bf8565b610bbb6001600160a01b037f0000000000000000000000000000000000000000000000000000000000000000163384611bf8565b600954600854610bcb91906122b5565b600c55604080518481526020810184905290810187905233907f1dc8bb69df2b8e91fbdcbfcf93d951b3f0000f085a95fe3f7946d6161439245d9060600160405180910390a250610c1c6001600655565b935093915050565b610c2c611a8a565b610c52610c416005546001600160a01b031690565b6001600160a01b0384169083611bf8565b5050565b6060600480546106529061226b565b6000610c6f611b98565b610c77611c57565b60007f00000000000000000000000000000000000000000000000000000000000000006001600160a01b0316610d8e5760003411610cf75760405162461bcd60e51b815260206004820181905260248201527f4d7573742073656e6420545452555354206173206e617469766520746f6b656e6044820152606401610800565b60008311610d525760405162461bcd60e51b815260206004820152602260248201527f5453575020616d6f756e74206d7573742062652067726561746572207468616e604482015261020360f41b6064820152608401610800565b5034610d896001600160a01b037f000000000000000000000000000000000000000000000000000000000000000016333086611c7b565b610e56565b600084118015610d9e5750600083115b610dea5760405162461bcd60e51b815260206004820152601e60248201527f416d6f756e7473206d7573742062652067726561746572207468616e203000006044820152606401610800565b5082610e216001600160a01b037f000000000000000000000000000000000000000000000000000000000000000016333084611c7b565b610e566001600160a01b037f000000000000000000000000000000000000000000000000000000000000000016333086611c7b565b6000610e6160025490565b905080600003610e9e576103e8610e80610e7b86856122b5565b611cb4565b610e8a919061231e565b9250610e9960016103e8611d23565b610ed8565b600854610ed590610eaf83856122b5565b610eb991906122cc565b600954610ec684886122b5565b610ed091906122cc565b611d59565b92505b60008311610f285760405162461bcd60e51b815260206004820152601d60248201527f496e73756666696369656e74206c6971756964697479206d696e7465640000006044820152606401610800565b610f323384611d23565b81600854610f409190612331565b600855600954610f51908590612331565b6009819055600854610f6391906122b5565b600c55604080518381526020810186905290810184905233907f64b83944e79c3ce8d4c297411de637c3e102d064677aac0c163976ebdcd6f50e9060600160405180910390a250506106e96001600655565b6000336106e3818585611a2b565b610fcb611b98565b610fd3611c57565b60008211610ff35760405162461bcd60e51b815260040161080090612344565b600060085411801561100757506000600954115b6110235760405162461bcd60e51b8152600401610800906122ee565b6110586001600160a01b037f000000000000000000000000000000000000000000000000000000000000000016333085611c7b565b6000611067601e61271061231e565b61107190846122b5565b905060006008548261108391906122b5565b905060008261271060095461109891906122b5565b6110a29190612331565b905060006110b082846122cc565b9050848110156111025760405162461bcd60e51b815260206004820152601a60248201527f496e73756666696369656e74206f757470757420616d6f756e740000000000006044820152606401610800565b60085481106111535760405162461bcd60e51b815260206004820152601d60248201527f496e73756666696369656e7420745452555354206c69717569646974790000006044820152606401610800565b7f00000000000000000000000000000000000000000000000000000000000000006001600160a01b031661121857604051600090339083908381818185875af1925050503d80600081146111c3576040519150601f19603f3d011682016040523d82523d6000602084013e6111c8565b606091505b50509050806112125760405162461bcd60e51b81526020600482015260166024820152751515149554d5081d1c985b9cd9995c8819985a5b195960521b6044820152606401610800565b5061124c565b61124c6001600160a01b037f0000000000000000000000000000000000000000000000000000000000000000163383611bf8565b8560095461125a9190612331565b60095560085461126b90829061231e565b60088190556009549061127e90886122b5565b61128891906122cc565b600a546112959190612331565b600a55600b546112a6906001612331565b600b55600c546009546008546112bc91906122b5565b10156113025760405162461bcd60e51b8152602060048201526015602482015274259034b73b30b934b0b73a103b34b7b630ba34b7b760591b6044820152606401610800565b60095460085461131291906122b5565b600c556001600160a01b037f00000000000000000000000000000000000000000000000000000000000000008116907f000000000000000000000000000000000000000000000000000000000000000016337fd6d34547c69c5ee3d2667625c188acf1006abb93e0ee7cf03925c67cf77604138985612710611395601e846122b5565b61139f91906122cc565b6040805193845260208401929092529082015260600160405180910390a450505050610c526001600655565b6113d3611b98565b6113db611c57565b60007f00000000000000000000000000000000000000000000000000000000000000006001600160a01b0316611462576000341161145b5760405162461bcd60e51b815260206004820181905260248201527f4d7573742073656e6420545452555354206173206e617469766520746f6b656e6044820152606401610800565b50346114b9565b600083116114825760405162461bcd60e51b815260040161080090612344565b50816114b96001600160a01b037f000000000000000000000000000000000000000000000000000000000000000016333084611c7b565b60006008541180156114cd57506000600954115b6114e95760405162461bcd60e51b8152600401610800906122ee565b60006114f8601e61271061231e565b61150290836122b5565b905060006009548261151491906122b5565b905060008261271060085461152991906122b5565b6115339190612331565b9050600061154182846122cc565b9050858110156115935760405162461bcd60e51b815260206004820152601a60248201527f496e73756666696369656e74206f757470757420616d6f756e740000000000006044820152606401610800565b60095481106115e45760405162461bcd60e51b815260206004820152601b60248201527f496e73756666696369656e742054535750206c697175696469747900000000006044820152606401610800565b6116186001600160a01b037f0000000000000000000000000000000000000000000000000000000000000000163383611bf8565b846008546116269190612331565b60085560095461163790829061231e565b600955600a54611648908690612331565b600a55600b54611659906001612331565b600b55600c5460095460085461166f91906122b5565b10156116b55760405162461bcd60e51b8152602060048201526015602482015274259034b73b30b934b0b73a103b34b7b630ba34b7b760591b6044820152606401610800565b6009546008546116c591906122b5565b600c556001600160a01b037f00000000000000000000000000000000000000000000000000000000000000008116907f000000000000000000000000000000000000000000000000000000000000000016337fd6d34547c69c5ee3d2667625c188acf1006abb93e0ee7cf03925c67cf77604138885612710611748601e846122b5565b61175291906122cc565b6040805193845260208401929092529082015260600160405180910390a45050505050610c526001600655565b60007f00000000000000000000000000000000000000000000000000000000000000006001600160a01b0316836001600160a01b031614806117f257507f00000000000000000000000000000000000000000000000000000000000000006001600160a01b0316836001600160a01b0316145b61182e5760405162461bcd60e51b815260206004820152600d60248201526c24b73b30b634b2103a37b5b2b760991b6044820152606401610800565b6000821161184e5760405162461bcd60e51b815260040161080090612344565b600060085411801561186257506000600954115b61187e5760405162461bcd60e51b8152600401610800906122ee565b600061188d601e61271061231e565b61189790846122b5565b90507f00000000000000000000000000000000000000000000000000000000000000006001600160a01b0316846001600160a01b031603611916576000600954826118e291906122b5565b90506000826127106008546118f791906122b5565b6119019190612331565b905061190d81836122cc565b93505050611956565b60006008548261192691906122b5565b905060008261271060095461193b91906122b5565b6119459190612331565b905061195181836122cc565b935050505b5092915050565b611965611a8a565b6001600160a01b03811661198f57604051631e4fbdf760e01b815260006004820152602401610800565b61199881611b09565b50565b6119a88383836001611d6f565b505050565b6001600160a01b038381166000908152600160209081526040808320938616835292905220546000198114611a255781811015611a1657604051637dc7a0d960e11b81526001600160a01b03841660048201526024810182905260448101839052606401610800565b611a2584848484036000611d6f565b50505050565b6001600160a01b038316611a5557604051634b637e8f60e11b815260006004820152602401610800565b6001600160a01b038216611a7f5760405163ec442f0560e01b815260006004820152602401610800565b6119a8838383611e44565b6005546001600160a01b031633146107535760405163118cdaa760e01b8152336004820152602401610800565b611abf611f6e565b6007805460ff191690557f5db9ee0a495bf2e6ff9c91a7834c1ba4fdd244a5e8aa4e537bd38aeae4b073aa335b6040516001600160a01b03909116815260200160405180910390a1565b600580546001600160a01b038381166001600160a01b0319831681179093556040519116919082907f8be0079c531659141344cd1fd0a4f28419497f9722a3daafe3b4186f6b6457e090600090a35050565b611b63611c57565b6007805460ff191660011790557f62e78cea01bee320cd4e420270b5ea74000d11b0c9f74754ebdbfc544b05a258611aec3390565b600260065403611bbb57604051633ee5aeb560e01b815260040160405180910390fd5b6002600655565b6001600160a01b038216611bec57604051634b637e8f60e11b815260006004820152602401610800565b610c5282600083611e44565b6040516001600160a01b038381166024830152604482018390526119a891859182169063a9059cbb906064015b604051602081830303815290604052915060e01b6020820180516001600160e01b038381831617835250505050611f91565b60075460ff16156107535760405163d93c066560e01b815260040160405180910390fd5b6040516001600160a01b038481166024830152838116604483015260648201839052611a259186918216906323b872dd90608401611c25565b60006003821115611d155750806000611cce6002836122cc565b611cd9906001612331565b90505b81811015611d0f57905080600281611cf481866122cc565b611cfe9190612331565b611d0891906122cc565b9050611cdc565b50919050565b81156108cb57506001919050565b6001600160a01b038216611d4d5760405163ec442f0560e01b815260006004820152602401610800565b610c5260008383611e44565b6000818310611d68578161070e565b5090919050565b6001600160a01b038416611d995760405163e602df0560e01b815260006004820152602401610800565b6001600160a01b038316611dc357604051634a1406b160e11b815260006004820152602401610800565b6001600160a01b0380851660009081526001602090815260408083209387168352929052208290558015611a2557826001600160a01b0316846001600160a01b03167f8c5be1e5ebec7d5bd14f71427d1e84f3dd0314c0f7b2291e5b200ac8c7c3b92584604051611e3691815260200190565b60405180910390a350505050565b6001600160a01b038316611e6f578060026000828254611e649190612331565b90915550611ee19050565b6001600160a01b03831660009081526020819052604090205481811015611ec25760405163391434e360e21b81526001600160a01b03851660048201526024810182905260448101839052606401610800565b6001600160a01b03841660009081526020819052604090209082900390555b6001600160a01b038216611efd57600280548290039055611f1c565b6001600160a01b03821660009081526020819052604090208054820190555b816001600160a01b0316836001600160a01b03167fddf252ad1be2c89b69c2b068fc378daa952ba7f163c4a11628f55a4df523b3ef83604051611f6191815260200190565b60405180910390a3505050565b60075460ff1661075357604051638dfc202b60e01b815260040160405180910390fd5b6000611fa66001600160a01b03841683611ff4565b90508051600014158015611fcb575080806020019051810190611fc9919061237b565b155b156119a857604051635274afe760e01b81526001600160a01b0384166004820152602401610800565b606061070e8383600084600080856001600160a01b0316848660405161201a919061239d565b60006040518083038185875af1925050503d8060008114612057576040519150601f19603f3d011682016040523d82523d6000602084013e61205c565b606091505b509150915061206c868383612076565b9695505050505050565b60608261208b57612086826120d2565b61070e565b81511580156120a257506001600160a01b0384163b155b156120cb57604051639996b31560e01b81526001600160a01b0385166004820152602401610800565b508061070e565b8051156120e25780518082602001fd5b604051630a12f52160e11b815260040160405180910390fd5b60005b838110156121165781810151838201526020016120fe565b50506000910152565b602081526000825180602084015261213e8160408501602087016120fb565b601f01601f19169190910160400192915050565b80356001600160a01b03811681146108cb57600080fd5b6000806040838503121561217c57600080fd5b61218583612152565b946020939093013593505050565b6000806000606084860312156121a857600080fd5b6121b184612152565b92506121bf60208501612152565b9150604084013590509250925092565b6000602082840312156121e157600080fd5b61070e82612152565b6000806000606084860312156121ff57600080fd5b505081359360208301359350604090920135919050565b6000806040838503121561222957600080fd5b50508035926020909101359150565b6000806040838503121561224b57600080fd5b61225483612152565b915061226260208401612152565b90509250929050565b600181811c9082168061227f57607f821691505b602082108103611d0f57634e487b7160e01b600052602260045260246000fd5b634e487b7160e01b600052601160045260246000fd5b80820281158282048414176106e9576106e961229f565b6000826122e957634e487b7160e01b600052601260045260246000fd5b500490565b602080825260169082015275496e73756666696369656e74206c697175696469747960501b604082015260600190565b818103818111156106e9576106e961229f565b808201808211156106e9576106e961229f565b6020808252601d908201527f416d6f756e74206d7573742062652067726561746572207468616e2030000000604082015260600190565b60006020828403121561238d57600080fd5b8151801515811461070e57600080fd5b600082516123af8184602087016120fb565b919091019291505056fea2646970667358221220308ed783b4101cac8e2ec00b512e046f413fee5f0bc7d76ec521a0f038f86baa64736f6c63430008140033",
  "devdoc": {
    "details": "Automated Market Maker (AMM) for tTRUST and TSWP tokens",
    "errors": {
      "AddressEmptyCode(address)": [
        {
          "details": "There's no code at `target` (it is not a contract)."
        }
      ],
      "AddressInsufficientBalance(address)": [
        {
          "details": "The ETH balance of the account is not enough to perform the operation."
        }
      ],
      "ERC20InsufficientAllowance(address,uint256,uint256)": [
        {
          "details": "Indicates a failure with the `spender`s `allowance`. Used in transfers.",
          "params": {
            "allowance": "Amount of tokens a `spender` is allowed to operate with.",
            "needed": "Minimum amount required to perform a transfer.",
            "spender": "Address that may be allowed to operate on tokens without being their owner."
          }
        }
      ],
      "ERC20InsufficientBalance(address,uint256,uint256)": [
        {
          "details": "Indicates an error related to the current `balance` of a `sender`. Used in transfers.",
          "params": {
            "balance": "Current balance for the interacting account.",
            "needed": "Minimum amount required to perform a transfer.",
            "sender": "Address whose tokens are being transferred."
          }
        }
      ],
      "ERC20InvalidApprover(address)": [
        {
          "details": "Indicates a failure with the `approver` of a token to be approved. Used in approvals.",
          "params": {
            "approver": "Address initiating an approval operation."
          }
        }
      ],
      "ERC20InvalidReceiver(address)": [
        {
          "details": "Indicates a failure with the token `receiver`. Used in transfers.",
          "params": {
            "receiver": "Address to which tokens are being transferred."
          }
        }
      ],
      "ERC20InvalidSender(address)": [
        {
          "details": "Indicates a failure with the token `sender`. Used in transfers.",
          "params": {
            "sender": "Address whose tokens are being transferred."
          }
        }
      ],
      "ERC20InvalidSpender(address)": [
        {
          "details": "Indicates a failure with the `spender` to be approved. Used in approvals.",
          "params": {
            "spender": "Address that may be allowed to operate on tokens without being their owner."
          }
        }
      ],
      "EnforcedPause()": [
        {
          "details": "The operation failed because the contract is paused."
        }
      ],
      "ExpectedPause()": [
        {
          "details": "The operation failed because the contract is not paused."
        }
      ],
      "FailedInnerCall()": [
        {
          "details": "A call to an address target failed. The target may have reverted."
        }
      ],
      "OwnableInvalidOwner(address)": [
        {
          "details": "The owner is not a valid owner account. (eg. `address(0)`)"
        }
      ],
      "OwnableUnauthorizedAccount(address)": [
        {
          "details": "The caller account is not authorized to perform an operation."
        }
      ],
      "ReentrancyGuardReentrantCall()": [
        {
          "details": "Unauthorized reentrant call."
        }
      ],
      "SafeERC20FailedOperation(address)": [
        {
          "details": "An operation with an ERC20 token failed."
        }
      ]
    },
    "events": {
      "Approval(address,address,uint256)": {
        "details": "Emitted when the allowance of a `spender` for an `owner` is set by a call to {approve}. `value` is the new allowance."
      },
      "Paused(address)": {
        "details": "Emitted when the pause is triggered by `account`."
      },
      "Transfer(address,address,uint256)": {
        "details": "Emitted when `value` tokens are moved from one account (`from`) to another (`to`). Note that `value` may be zero."
      },
      "Unpaused(address)": {
        "details": "Emitted when the pause is lifted by `account`."
      }
    },
    "kind": "dev",
    "methods": {
      "addLiquidity(uint256,uint256)": {
        "details": "Add liquidity to the pool",
        "params": {
          "_tTrustAmount": "Amount of tTRUST tokens to add (use 0 when sending ETH)",
          "_tswpAmount": "Amount of TSWP tokens to add"
        },
        "returns": {
          "liquidity": "LP tokens minted"
        }
      },
      "allowance(address,address)": {
        "details": "See {IERC20-allowance}."
      },
      "approve(address,uint256)": {
        "details": "See {IERC20-approve}. NOTE: If `value` is the maximum `uint256`, the allowance is not updated on `transferFrom`. This is semantically equivalent to an infinite approval. Requirements: - `spender` cannot be the zero address."
      },
      "balanceOf(address)": {
        "details": "See {IERC20-balanceOf}."
      },
      "constructor": {
        "details": "Constructor",
        "params": {
          "_tTrust": "Address of tTRUST token (use 0x0 for native token)",
          "_tswp": "Address of TSWP token"
        }
      },
      "decimals()": {
        "details": "Returns the number of decimals used to get its user representation. For example, if `decimals` equals `2`, a balance of `505` tokens should be displayed to a user as `5.05` (`505 / 10 ** 2`). Tokens usually opt for a value of 18, imitating the relationship between Ether and Wei. This is the default value returned by this function, unless it's overridden. NOTE: This information is only used for _display_ purposes: it in no way affects any of the arithmetic of the contract, including {IERC20-balanceOf} and {IERC20-transfer}."
      },
      "getAmountOut(address,uint256)": {
        "details": "Get swap quote for exact input",
        "params": {
          "_amountIn": "Input amount",
          "_tokenIn": "Input token address"
        },
        "returns": {
          "amountOut": "Output amount after fees"
        }
      },
      "getDEXStats()": {
        "details": "Get DEX statistics"
      },
      "getPrice(address)": {
        "details": "Get current price of token in terms of the other token",
        "params": {
          "_token": "Token to get price for"
        },
        "returns": {
          "price": "Price in 18 decimal places"
        }
      },
      "name()": {
        "details": "Returns the name of the token."
      },
      "owner()": {
        "details": "Returns the address of the current owner."
      },
      "paused()": {
        "details": "Returns true if the contract is paused, and false otherwise."
      },
      "removeLiquidity(uint256,uint256,uint256)": {
        "details": "Remove liquidity from the pool",
        "params": {
          "_liquidity": "Amount of LP tokens to burn",
          "_minTTrust": "Minimum tTRUST to receive",
          "_minTswp": "Minimum TSWP to receive"
        }
      },
      "renounceOwnership()": {
        "details": "Leaves the contract without owner. It will not be possible to call `onlyOwner` functions. Can only be called by the current owner. NOTE: Renouncing ownership will leave the contract without an owner, thereby disabling any functionality that is only available to the owner."
      },
      "swapTrustForTswp(uint256,uint256)": {
        "details": "Swap tTRUST for TSWP",
        "params": {
          "_amountIn": "Amount of tTRUST to swap",
          "_minAmountOut": "Minimum amount of TSWP to receive"
        }
      },
      "swapTswpForTrust(uint256,uint256)": {
        "details": "Swap TSWP for tTRUST",
        "params": {
          "_amountIn": "Amount of TSWP to swap",
          "_minAmountOut": "Minimum amount of tTRUST to receive"
        }
      },
      "symbol()": {
        "details": "Returns the symbol of the token, usually a shorter version of the name."
      },
      "totalSupply()": {
        "details": "See {IERC20-totalSupply}."
      },
      "transfer(address,uint256)": {
        "details": "See {IERC20-transfer}. Requirements: - `to` cannot be the zero address. - the caller must have a balance of at least `value`."
      },
      "transferFrom(address,address,uint256)": {
        "details": "See {IERC20-transferFrom}. Emits an {Approval} event indicating the updated allowance. This is not required by the EIP. See the note at the beginning of {ERC20}. NOTE: Does not update the allowance if the current allowance is the maximum `uint256`. Requirements: - `from` and `to` cannot be the zero address. - `from` must have a balance of at least `value`. - the caller must have allowance for ``from``'s tokens of at least `value`."
      },
      "transferOwnership(address)": {
        "details": "Transfers ownership of the contract to a new account (`newOwner`). Can only be called by the current owner."
      }
    },
    "title": "DEX_TSWP",
    "version": 1
  },
  "userdoc": {
    "kind": "user",
    "methods": {},
    "notice": "Uses constant product formula (x * y = k) for price discovery",
    "version": 1
  },
  "storageLayout": {
    "storage": [
      {
        "astId": 988,
        "contract": "contracts/DEX_TSWP.sol:DEX_TSWP",
        "label": "_balances",
        "offset": 0,
        "slot": "0",
        "type": "t_mapping(t_address,t_uint256)"
      },
      {
        "astId": 994,
        "contract": "contracts/DEX_TSWP.sol:DEX_TSWP",
        "label": "_allowances",
        "offset": 0,
        "slot": "1",
        "type": "t_mapping(t_address,t_mapping(t_address,t_uint256))"
      },
      {
        "astId": 996,
        "contract": "contracts/DEX_TSWP.sol:DEX_TSWP",
        "label": "_totalSupply",
        "offset": 0,
        "slot": "2",
        "type": "t_uint256"
      },
      {
        "astId": 998,
        "contract": "contracts/DEX_TSWP.sol:DEX_TSWP",
        "label": "_name",
        "offset": 0,
        "slot": "3",
        "type": "t_string_storage"
      },
      {
        "astId": 1000,
        "contract": "contracts/DEX_TSWP.sol:DEX_TSWP",
        "label": "_symbol",
        "offset": 0,
        "slot": "4",
        "type": "t_string_storage"
      },
      {
        "astId": 8,
        "contract": "contracts/DEX_TSWP.sol:DEX_TSWP",
        "label": "_owner",
        "offset": 0,
        "slot": "5",
        "type": "t_address"
      },
      {
        "astId": 2601,
        "contract": "contracts/DEX_TSWP.sol:DEX_TSWP",
        "label": "_status",
        "offset": 0,
        "slot": "6",
        "type": "t_uint256"
      },
      {
        "astId": 2482,
        "contract": "contracts/DEX_TSWP.sol:DEX_TSWP",
        "label": "_paused",
        "offset": 0,
        "slot": "7",
        "type": "t_bool"
      },
      {
        "astId": 13413,
        "contract": "contracts/DEX_TSWP.sol:DEX_TSWP",
        "label": "tTrustReserve",
        "offset": 0,
        "slot": "8",
        "type": "t_uint256"
      },
      {
        "astId": 13415,
        "contract": "contracts/DEX_TSWP.sol:DEX_TSWP",
        "label": "tswpReserve",
        "offset": 0,
        "slot": "9",
        "type": "t_uint256"
      },
      {
        "astId": 13417,
        "contract": "contracts/DEX_TSWP.sol:DEX_TSWP",
        "label": "totalVolume",
        "offset": 0,
        "slot": "10",
        "type": "t_uint256"
      },
      {
        "astId": 13419,
        "contract": "contracts/DEX_TSWP.sol:DEX_TSWP",
        "label": "totalTrades",
        "offset": 0,
        "slot": "11",
        "type": "t_uint256"
      },
      {
        "astId": 13421,
        "contract": "contracts/DEX_TSWP.sol:DEX_TSWP",
        "label": "kLast",
        "offset": 0,
        "slot": "12",
        "type": "t_uint256"
      }
    ],
    "types": {
      "t_address": {
        "encoding": "inplace",
        "label": "address",
        "numberOfBytes": "20"
      },
      "t_bool": {
        "encoding": "inplace",
        "label": "bool",
        "numberOfBytes": "1"
      },
      "t_mapping(t_address,t_mapping(t_address,t_uint256))": {
        "encoding": "mapping",
        "key": "t_address",
        "label": "mapping(address => mapping(address => uint256))",
        "numberOfBytes": "32",
        "value": "t_mapping(t_address,t_uint256)"
      },
      "t_mapping(t_address,t_uint256)": {
        "encoding": "mapping",
        "key": "t_address",
        "label": "mapping(address => uint256)",
        "numberOfBytes": "32",
        "value": "t_uint256"
      },
      "t_string_storage": {
        "encoding": "bytes",
        "label": "string",
        "numberOfBytes": "32"
      },
      "t_uint256": {
        "encoding": "inplace",
        "label": "uint256",
        "numberOfBytes": "32"
      }
    }
  }
}