{
  "address": "0x51A1ceB83B83F1985a81C295d1fF28Afef186E02",
  "abi": [
    {
      "inputs": [],
      "stateMutability": "nonpayable",
      "type": "constructor"
    },
    {
      "inputs": [
        {
          "internalType": "address",
          "name": "spender",
          "type": "address"
        },
        {
          "internalType": "uint256",
          "name": "allowance",
          "type": "uint256"
        },
        {
          "internalType": "uint256",
          "name": "needed",
          "type": "uint256"
        }
      ],
      "name": "ERC20InsufficientAllowance",
      "type": "error"
    },
    {
      "inputs": [
        {
          "internalType": "address",
          "name": "sender",
          "type": "address"
        },
        {
          "internalType": "uint256",
          "name": "balance",
          "type": "uint256"
        },
        {
          "internalType": "uint256",
          "name": "needed",
          "type": "uint256"
        }
      ],
      "name": "ERC20InsufficientBalance",
      "type": "error"
    },
    {
      "inputs": [
        {
          "internalType": "address",
          "name": "approver",
          "type": "address"
        }
      ],
      "name": "ERC20InvalidApprover",
      "type": "error"
    },
    {
      "inputs": [
        {
          "internalType": "address",
          "name": "receiver",
          "type": "address"
        }
      ],
      "name": "ERC20InvalidReceiver",
      "type": "error"
    },
    {
      "inputs": [
        {
          "internalType": "address",
          "name": "sender",
          "type": "address"
        }
      ],
      "name": "ERC20InvalidSender",
      "type": "error"
    },
    {
      "inputs": [
        {
          "internalType": "address",
          "name": "spender",
          "type": "address"
        }
      ],
      "name": "ERC20InvalidSpender",
      "type": "error"
    },
    {
      "inputs": [],
      "name": "EnforcedPause",
      "type": "error"
    },
    {
      "inputs": [],
      "name": "ExpectedPause",
      "type": "error"
    },
    {
      "inputs": [
        {
          "internalType": "address",
          "name": "owner",
          "type": "address"
        }
      ],
      "name": "OwnableInvalidOwner",
      "type": "error"
    },
    {
      "inputs": [
        {
          "internalType": "address",
          "name": "account",
          "type": "address"
        }
      ],
      "name": "OwnableUnauthorizedAccount",
      "type": "error"
    },
    {
      "inputs": [],
      "name": "ReentrancyGuardReentrantCall",
      "type": "error"
    },
    {
      "anonymous": false,
      "inputs": [
        {
          "indexed": true,
          "internalType": "address",
          "name": "owner",
          "type": "address"
        },
        {
          "indexed": true,
          "internalType": "address",
          "name": "spender",
          "type": "address"
        },
        {
          "indexed": false,
          "internalType": "uint256",
          "name": "value",
          "type": "uint256"
        }
      ],
      "name": "Approval",
      "type": "event"
    },
    {
      "anonymous": false,
      "inputs": [
        {
          "indexed": true,
          "internalType": "address",
          "name": "minter",
          "type": "address"
        }
      ],
      "name": "MinterAdded",
      "type": "event"
    },
    {
      "anonymous": false,
      "inputs": [
        {
          "indexed": true,
          "internalType": "address",
          "name": "minter",
          "type": "address"
        }
      ],
      "name": "MinterRemoved",
      "type": "event"
    },
    {
      "anonymous": false,
      "inputs": [
        {
          "indexed": true,
          "internalType": "address",
          "name": "previousOwner",
          "type": "address"
        },
        {
          "indexed": true,
          "internalType": "address",
          "name": "newOwner",
          "type": "address"
        }
      ],
      "name": "OwnershipTransferred",
      "type": "event"
    },
    {
      "anonymous": false,
      "inputs": [
        {
          "indexed": false,
          "internalType": "address",
          "name": "account",
          "type": "address"
        }
      ],
      "name": "Paused",
      "type": "event"
    },
    {
      "anonymous": false,
      "inputs": [
        {
          "indexed": true,
          "internalType": "address",
          "name": "user",
          "type": "address"
        },
        {
          "indexed": false,
          "internalType": "uint256",
          "name": "rewards",
          "type": "uint256"
        }
      ],
      "name": "RewardsClaimed",
      "type": "event"
    },
    {
      "anonymous": false,
      "inputs": [
        {
          "indexed": true,
          "internalType": "address",
          "name": "user",
          "type": "address"
        },
        {
          "indexed": false,
          "internalType": "uint256",
          "name": "amount",
          "type": "uint256"
        }
      ],
      "name": "Staked",
      "type": "event"
    },
    {
      "anonymous": false,
      "inputs": [
        {
          "indexed": true,
          "internalType": "address",
          "name": "burner",
          "type": "address"
        },
        {
          "indexed": false,
          "internalType": "uint256",
          "name": "amount",
          "type": "uint256"
        },
        {
          "indexed": false,
          "internalType": "uint256",
          "name": "reason",
          "type": "uint256"
        }
      ],
      "name": "TokensBurned",
      "type": "event"
    },
    {
      "anonymous": false,
      "inputs": [
        {
          "indexed": true,
          "internalType": "address",
          "name": "from",
          "type": "address"
        },
        {
          "indexed": true,
          "internalType": "address",
          "name": "to",
          "type": "address"
        },
        {
          "indexed": false,
          "internalType": "uint256",
          "name": "value",
          "type": "uint256"
        }
      ],
      "name": "Transfer",
      "type": "event"
    },
    {
      "anonymous": false,
      "inputs": [
        {
          "indexed": false,
          "internalType": "address",
          "name": "account",
          "type": "address"
        }
      ],
      "name": "Unpaused",
      "type": "event"
    },
    {
      "anonymous": false,
      "inputs": [
        {
          "indexed": true,
          "internalType": "address",
          "name": "user",
          "type": "address"
        },
        {
          "indexed": false,
          "internalType": "uint256",
          "name": "amount",
          "type": "uint256"
        }
      ],
      "name": "Unstaked",
      "type": "event"
    },
    {
      "inputs": [],
      "name": "INITIAL_SUPPLY",
      "outputs": [
        {
          "internalType": "uint256",
          "name": "",
          "type": "uint256"
        }
      ],
      "stateMutability": "view",
      "type": "function"
    },
    {
      "inputs": [],
      "name": "MAX_SUPPLY",
      "outputs": [
        {
          "internalType": "uint256",
          "name": "",
          "type": "uint256"
        }
      ],
      "stateMutability": "view",
      "type": "function"
    },
    {
      "inputs": [],
      "name": "SECONDS_PER_YEAR",
      "outputs": [
        {
          "internalType": "uint256",
          "name": "",
          "type": "uint256"
        }
      ],
      "stateMutability": "view",
      "type": "function"
    },
    {
      "inputs": [],
      "name": "STAKING_APR",
      "outputs": [
        {
          "internalType": "uint256",
          "name": "",
          "type": "uint256"
        }
      ],
      "stateMutability": "view",
      "type": "function"
    },
    {
      "inputs": [
        {
          "internalType": "address",
          "name": "minter",
          "type": "address"
        }
      ],
      "name": "addMinter",
      "outputs": [],
      "stateMutability": "nonpayable",
      "type": "function"
    },
    {
      "inputs": [
        {
          "internalType": "address",
          "name": "owner",
          "type": "address"
        },
        {
          "internalType": "address",
          "name": "spender",
          "type": "address"
        }
      ],
      "name": "allowance",
      "outputs": [
        {
          "internalType": "uint256",
          "name": "",
          "type": "uint256"
        }
      ],
      "stateMutability": "view",
      "type": "function"
    },
    {
      "inputs": [
        {
          "internalType": "address",
          "name": "spender",
          "type": "address"
        },
        {
          "internalType": "uint256",
          "name": "value",
          "type": "uint256"
        }
      ],
      "name": "approve",
      "outputs": [
        {
          "internalType": "bool",
          "name": "",
          "type": "bool"
        }
      ],
      "stateMutability": "nonpayable",
      "type": "function"
    },
    {
      "inputs": [
        {
          "internalType": "address",
          "name": "account",
          "type": "address"
        }
      ],
      "name": "balanceOf",
      "outputs": [
        {
          "internalType": "uint256",
          "name": "",
          "type": "uint256"
        }
      ],
      "stateMutability": "view",
      "type": "function"
    },
    {
      "inputs": [
        {
          "internalType": "uint256",
          "name": "value",
          "type": "uint256"
        }
      ],
      "name": "burn",
      "outputs": [],
      "stateMutability": "nonpayable",
      "type": "function"
    },
    {
      "inputs": [
        {
          "internalType": "address",
          "name": "account",
          "type": "address"
        },
        {
          "internalType": "uint256",
          "name": "value",
          "type": "uint256"
        }
      ],
      "name": "burnFrom",
      "outputs": [],
      "stateMutability": "nonpayable",
      "type": "function"
    },
    {
      "inputs": [
        {
          "internalType": "address",
          "name": "user",
          "type": "address"
        }
      ],
      "name": "calculatePendingRewards",
      "outputs": [
        {
          "internalType": "uint256",
          "name": "",
          "type": "uint256"
        }
      ],
      "stateMutability": "view",
      "type": "function"
    },
    {
      "inputs": [],
      "name": "claimRewards",
      "outputs": [],
      "stateMutability": "nonpayable",
      "type": "function"
    },
    {
      "inputs": [],
      "name": "decimals",
      "outputs": [
        {
          "internalType": "uint8",
          "name": "",
          "type": "uint8"
        }
      ],
      "stateMutability": "view",
      "type": "function"
    },
    {
      "inputs": [],
      "name": "getGlobalStats",
      "outputs": [
        {
          "internalType": "uint256",
          "name": "totalStakedGlobal",
          "type": "uint256"
        },
        {
          "internalType": "uint256",
          "name": "totalRewardsPaidGlobal",
          "type": "uint256"
        },
        {
          "internalType": "uint256",
          "name": "contractBalance",
          "type": "uint256"
        },
        {
          "internalType": "uint256",
          "name": "apr",
          "type": "uint256"
        }
      ],
      "stateMutability": "view",
      "type": "function"
    },
    {
      "inputs": [
        {
          "internalType": "address",
          "name": "user",
          "type": "address"
        }
      ],
      "name": "getStakingInfo",
      "outputs": [
        {
          "internalType": "uint256",
          "name": "stakedAmount",
          "type": "uint256"
        },
        {
          "internalType": "uint256",
          "name": "pendingRewards",
          "type": "uint256"
        },
        {
          "internalType": "uint256",
          "name": "apr",
          "type": "uint256"
        },
        {
          "internalType": "uint256",
          "name": "totalUserBalance",
          "type": "uint256"
        }
      ],
      "stateMutability": "view",
      "type": "function"
    },
    {
      "inputs": [],
      "name": "getTokenInfo",
      "outputs": [
        {
          "internalType": "string",
          "name": "tokenName",
          "type": "string"
        },
        {
          "internalType": "string",
          "name": "tokenSymbol",
          "type": "string"
        },
        {
          "internalType": "uint8",
          "name": "tokenDecimals",
          "type": "uint8"
        },
        {
          "internalType": "uint256",
          "name": "supply",
          "type": "uint256"
        },
        {
          "internalType": "uint256",
          "name": "maxSupply",
          "type": "uint256"
        },
        {
          "internalType": "uint256",
          "name": "stakingAPR",
          "type": "uint256"
        }
      ],
      "stateMutability": "pure",
      "type": "function"
    },
    {
      "inputs": [
        {
          "internalType": "address",
          "name": "",
          "type": "address"
        }
      ],
      "name": "isMinter",
      "outputs": [
        {
          "internalType": "bool",
          "name": "",
          "type": "bool"
        }
      ],
      "stateMutability": "view",
      "type": "function"
    },
    {
      "inputs": [
        {
          "internalType": "address",
          "name": "to",
          "type": "address"
        },
        {
          "internalType": "uint256",
          "name": "amount",
          "type": "uint256"
        }
      ],
      "name": "mint",
      "outputs": [],
      "stateMutability": "nonpayable",
      "type": "function"
    },
    {
      "inputs": [],
      "name": "name",
      "outputs": [
        {
          "internalType": "string",
          "name": "",
          "type": "string"
        }
      ],
      "stateMutability": "view",
      "type": "function"
    },
    {
      "inputs": [],
      "name": "owner",
      "outputs": [
        {
          "internalType": "address",
          "name": "",
          "type": "address"
        }
      ],
      "stateMutability": "view",
      "type": "function"
    },
    {
      "inputs": [],
      "name": "pause",
      "outputs": [],
      "stateMutability": "nonpayable",
      "type": "function"
    },
    {
      "inputs": [],
      "name": "paused",
      "outputs": [
        {
          "internalType": "bool",
          "name": "",
          "type": "bool"
        }
      ],
      "stateMutability": "view",
      "type": "function"
    },
    {
      "inputs": [
        {
          "internalType": "uint256",
          "name": "amount",
          "type": "uint256"
        },
        {
          "internalType": "uint256",
          "name": "reason",
          "type": "uint256"
        }
      ],
      "name": "protocolBurn",
      "outputs": [],
      "stateMutability": "nonpayable",
      "type": "function"
    },
    {
      "inputs": [
        {
          "internalType": "address",
          "name": "minter",
          "type": "address"
        }
      ],
      "name": "removeMinter",
      "outputs": [],
      "stateMutability": "nonpayable",
      "type": "function"
    },
    {
      "inputs": [],
      "name": "renounceOwnership",
      "outputs": [],
      "stateMutability": "nonpayable",
      "type": "function"
    },
    {
      "inputs": [
        {
          "internalType": "uint256",
          "name": "amount",
          "type": "uint256"
        }
      ],
      "name": "stake",
      "outputs": [],
      "stateMutability": "nonpayable",
      "type": "function"
    },
    {
      "inputs": [
        {
          "internalType": "address",
          "name": "",
          "type": "address"
        }
      ],
      "name": "stakingInfo",
      "outputs": [
        {
          "internalType": "uint256",
          "name": "stakedAmount",
          "type": "uint256"
        },
        {
          "internalType": "uint256",
          "name": "lastRewardTime",
          "type": "uint256"
        },
        {
          "internalType": "uint256",
          "name": "accumulatedRewards",
          "type": "uint256"
        }
      ],
      "stateMutability": "view",
      "type": "function"
    },
    {
      "inputs": [],
      "name": "symbol",
      "outputs": [
        {
          "internalType": "string",
          "name": "",
          "type": "string"
        }
      ],
      "stateMutability": "view",
      "type": "function"
    },
    {
      "inputs": [],
      "name": "totalRewardsPaid",
      "outputs": [
        {
          "internalType": "uint256",
          "name": "",
          "type": "uint256"
        }
      ],
      "stateMutability": "view",
      "type": "function"
    },
    {
      "inputs": [],
      "name": "totalStaked",
      "outputs": [
        {
          "internalType": "uint256",
          "name": "",
          "type": "uint256"
        }
      ],
      "stateMutability": "view",
      "type": "function"
    },
    {
      "inputs": [],
      "name": "totalSupply",
      "outputs": [
        {
          "internalType": "uint256",
          "name": "",
          "type": "uint256"
        }
      ],
      "stateMutability": "view",
      "type": "function"
    },
    {
      "inputs": [
        {
          "internalType": "address",
          "name": "to",
          "type": "address"
        },
        {
          "internalType": "uint256",
          "name": "value",
          "type": "uint256"
        }
      ],
      "name": "transfer",
      "outputs": [
        {
          "internalType": "bool",
          "name": "",
          "type": "bool"
        }
      ],
      "stateMutability": "nonpayable",
      "type": "function"
    },
    {
      "inputs": [
        {
          "internalType": "address",
          "name": "from",
          "type": "address"
        },
        {
          "internalType": "address",
          "name": "to",
          "type": "address"
        },
        {
          "internalType": "uint256",
          "name": "value",
          "type": "uint256"
        }
      ],
      "name": "transferFrom",
      "outputs": [
        {
          "internalType": "bool",
          "name": "",
          "type": "bool"
        }
      ],
      "stateMutability": "nonpayable",
      "type": "function"
    },
    {
      "inputs": [
        {
          "internalType": "address",
          "name": "newOwner",
          "type": "address"
        }
      ],
      "name": "transferOwnership",
      "outputs": [],
      "stateMutability": "nonpayable",
      "type": "function"
    },
    {
      "inputs": [],
      "name": "unpause",
      "outputs": [],
      "stateMutability": "nonpayable",
      "type": "function"
    },
    {
      "inputs": [
        {
          "internalType": "uint256",
          "name": "amount",
          "type": "uint256"
        }
      ],
      "name": "unstake",
      "outputs": [],
      "stateMutability": "nonpayable",
      "type": "function"
    }
  ],
  "transactionHash": "0x69f8e96f6d24931e63ee076a240593d69f4596ed3e3b481b3772760e3d638512",
  "args": [],
  "numDeployments": 1,
  "solcInputHash": "ad5c3c6003b0712132cd9bc65421ad73",
  "bytecode": "0x60806040523480156200001157600080fd5b50336040518060400160405280600b81526020016a2824a72a2a902a37b5b2b760a91b8152506040518060400160405280600581526020016450494e545560d81b8152508160039081620000669190620003c5565b506004620000758282620003c5565b5050506001600160a01b038116620000a857604051631e4fbdf760e01b8152600060048201526024015b60405180910390fd5b620000b38162000100565b506005805460ff60a01b1916905560016006819055336000818152600760205260409020805460ff1916909217909155620000fa906a084595161401484a00000062000152565b620004b9565b600580546001600160a01b038381166001600160a01b0319831681179093556040519116919082907f8be0079c531659141344cd1fd0a4f28419497f9722a3daafe3b4186f6b6457e090600090a35050565b6001600160a01b0382166200017e5760405163ec442f0560e01b8152600060048201526024016200009f565b6200018c6000838362000190565b5050565b6200019d838383620001a2565b505050565b620001ac620001b9565b6200019d838383620001ee565b620001cd600554600160a01b900460ff1690565b15620001ec5760405163d93c066560e01b815260040160405180910390fd5b565b6001600160a01b0383166200021d57806002600082825462000211919062000491565b90915550620002919050565b6001600160a01b03831660009081526020819052604090205481811015620002725760405163391434e360e21b81526001600160a01b038516600482015260248101829052604481018390526064016200009f565b6001600160a01b03841660009081526020819052604090209082900390555b6001600160a01b038216620002af57600280548290039055620002ce565b6001600160a01b03821660009081526020819052604090208054820190555b816001600160a01b0316836001600160a01b03167fddf252ad1be2c89b69c2b068fc378daa952ba7f163c4a11628f55a4df523b3ef836040516200031491815260200190565b60405180910390a3505050565b634e487b7160e01b600052604160045260246000fd5b600181811c908216806200034c57607f821691505b6020821081036200036d57634e487b7160e01b600052602260045260246000fd5b50919050565b601f8211156200019d57600081815260208120601f850160051c810160208610156200039c5750805b601f850160051c820191505b81811015620003bd57828155600101620003a8565b505050505050565b81516001600160401b03811115620003e157620003e162000321565b620003f981620003f2845462000337565b8462000373565b602080601f831160018114620004315760008415620004185750858301515b600019600386901b1c1916600185901b178555620003bd565b600085815260208120601f198616915b82811015620004625788860151825594840194600190910190840162000441565b5085821015620004815787850151600019600388901b60f8161c191681555b5050505050600190811b01905550565b80820180821115620004b357634e487b7160e01b600052601160045260246000fd5b92915050565b61178e80620004c96000396000f3fe608060405234801561001057600080fd5b506004361061021c5760003560e01c8063715018a611610125578063a694fc3a116100ad578063aa4704f31161007c578063aa4704f3146104ac578063abb1dc44146104bf578063dd62ed3e1461052d578063e6a69ab814610566578063f2fde38b1461057157600080fd5b8063a694fc3a1461045a578063a6ad88221461046d578063a9059cbb14610476578063aa271e1a1461048957600080fd5b80638456cb59116100f45780638456cb59146103d25780638da5cb5b146103da57806394eecb50146103f557806395d89b411461043f578063983b2d561461044757600080fd5b8063715018a6146103a557806374958e35146103ad57806379cc6790146103b6578063817b1cd2146103c957600080fd5b806332cb6b0c116101a857806342966c681161017757806342966c681461031c5780635c975abb1461032f57806362dae332146103415780636b4169c31461035457806370a082311461037c57600080fd5b806332cb6b0c146102e7578063372500ab146102f95780633f4ba83a1461030157806340c10f191461030957600080fd5b806323b872dd116101ef57806323b872dd1461028b5780632e17de781461029e5780632ff2e9dc146102b35780633092afd5146102c5578063313ce567146102d857600080fd5b806306fdde0314610221578063095ea7b31461023f578063097aad101461026257806318160ddd14610283575b600080fd5b610229610584565b6040516102369190611536565b60405180910390f35b61025261024d36600461156c565b610616565b6040519015158152602001610236565b610275610270366004611596565b610630565b604051908152602001610236565b600254610275565b6102526102993660046115b1565b6106f0565b6102b16102ac3660046115ed565b610714565b005b6102756a084595161401484a00000081565b6102b16102d3366004611596565b61084e565b60405160128152602001610236565b6102756a0c685fa11e01ec6f00000081565b6102b16108f6565b6102b1610ac0565b6102b161031736600461156c565b610ad0565b6102b161032a3660046115ed565b610ba4565b600554600160a01b900460ff16610252565b6102b161034f366004611606565b610bae565b61035c610c6a565b604080519485526020850193909352918301526060820152608001610236565b61027561038a366004611596565b6001600160a01b031660009081526020819052604090205490565b6102b1610ca6565b610275600a5481565b6102b16103c436600461156c565b610cb8565b61027560095481565b6102b1610ccd565b6005546040516001600160a01b039091168152602001610236565b610424610403366004611596565b60086020526000908152604090208054600182015460029092015490919083565b60408051938452602084019290925290820152606001610236565b610229610cdd565b6102b1610455366004611596565b610cec565b6102b16104683660046115ed565b610de4565b6102756104b081565b61025261048436600461156c565b610f0e565b610252610497366004611596565b60076020526000908152604090205460ff1681565b61035c6104ba366004611596565b610f1c565b604080518082018252600b81526a2824a72a2a902a37b5b2b760a91b6020808301919091528251808401909352600583526450494e545560d81b908301529060126a084595161401484a0000006a0c685fa11e01ec6f0000006104b060405161023696959493929190611628565b61027561053b366004611676565b6001600160a01b03918216600090815260016020908152604080832093909416825291909152205490565b6102756301e1338081565b6102b161057f366004611596565b610f76565b606060038054610593906116a9565b80601f01602080910402602001604051908101604052809291908181526020018280546105bf906116a9565b801561060c5780601f106105e15761010080835404028352916020019161060c565b820191906000526020600020905b8154815290600101906020018083116105ef57829003601f168201915b5050505050905090565b600033610624818585610fb1565b60019150505b92915050565b6001600160a01b03811660009081526008602090815260408083208151606081018352815480825260018301549482019490945260029091015491810191909152908203610682576040015192915050565b600081602001514261069491906116f9565b905060006127106104b084600001516106ad919061170c565b6106b79190611723565b905060006301e133806106ca848461170c565b6106d49190611723565b90508084604001516106e69190611745565b9695505050505050565b6000336106fe858285610fc3565b610709858585611041565b506001949350505050565b61071c6110a0565b600081116107645760405162461bcd60e51b815260206004820152601060248201526f043616e6e6f7420756e7374616b6520360841b60448201526064015b60405180910390fd5b336000908152600860205260409020548111156107b95760405162461bcd60e51b8152602060048201526013602482015272125b9cdd59999a58da595b9d081cdd185ad959606a1b604482015260640161075b565b6107c2336110ca565b33600090815260086020526040812080548392906107e19084906116f9565b9250508190555080600960008282546107fa91906116f9565b9091555061080b9050303383611041565b60405181815233907f0f5bb82176feb1b5e747e28471aa92156a04d9f3ab9f45f28e2d704232b93f75906020015b60405180910390a261084b6001600655565b50565b610856611100565b6001600160a01b03811660009081526007602052604090205460ff166108ad5760405162461bcd60e51b815260206004820152600c60248201526b2737ba10309036b4b73a32b960a11b604482015260640161075b565b6001600160a01b038116600081815260076020526040808220805460ff19169055517fe94479a9f7e1952cc78f2d6baab678adc1b772d936c6583def489e524cb666929190a250565b6108fe6110a0565b610907336110ca565b336000908152600860205260409020600201548061095d5760405162461bcd60e51b81526020600482015260136024820152724e6f207265776172647320746f20636c61696d60681b604482015260640161075b565b336000908152600860205260408120600201556a0c685fa11e01ec6f0000008161098660025490565b6109909190611745565b116109f05761099f338261112d565b80600a60008282546109b19190611745565b909155505060405181815233907ffc30cddea38e2bf4d6ea7d3f9ed3b6ad7f176419f4963bd81318067a4aee73fe9060200160405180910390a2610ab3565b6009546109fd9082611745565b306000908152602081905260409020541015610a5b5760405162461bcd60e51b815260206004820152601860248201527f496e73756666696369656e742072657761726420706f6f6c0000000000000000604482015260640161075b565b610a66303383611041565b80600a6000828254610a789190611745565b909155505060405181815233907ffc30cddea38e2bf4d6ea7d3f9ed3b6ad7f176419f4963bd81318067a4aee73fe9060200160405180910390a25b50610abe6001600655565b565b610ac8611100565b610abe611163565b3360009081526007602052604090205460ff1680610af857506005546001600160a01b031633145b610b335760405162461bcd60e51b815260206004820152600c60248201526b2737ba10309036b4b73a32b960a11b604482015260640161075b565b6a0c685fa11e01ec6f00000081610b4960025490565b610b539190611745565b1115610b965760405162461bcd60e51b815260206004820152601260248201527145786365656473206d617820737570706c7960701b604482015260640161075b565b610ba0828261112d565b5050565b61084b33826111b8565b610bb6611100565b600954610bc39083611745565b306000908152602081905260409020541015610c215760405162461bcd60e51b815260206004820152601960248201527f576f756c6420616666656374207374616b65642066756e647300000000000000604482015260640161075b565b610c2b30836111b8565b604080518381526020810183905230917fccbea4088a3b7ae9ca2d15fab9a9742a4075b4d7247768a1eecea917565aba00910160405180910390a25050565b600080600080600954600a54610c95306001600160a01b031660009081526020819052604090205490565b6104b0935093509350935090919293565b610cae611100565b610abe60006111ee565b610cc3823383610fc3565b610ba082826111b8565b610cd5611100565b610abe611240565b606060048054610593906116a9565b610cf4611100565b6001600160a01b038116610d3c5760405162461bcd60e51b815260206004820152600f60248201526e496e76616c6964206164647265737360881b604482015260640161075b565b6001600160a01b03811660009081526007602052604090205460ff1615610d985760405162461bcd60e51b815260206004820152601060248201526f20b63932b0b23c90309036b4b73a32b960811b604482015260640161075b565b6001600160a01b038116600081815260076020526040808220805460ff19166001179055517f6ae172837ea30b801fbfcdd4108aa1d5bf8ff775444fd70256b44e6bf3dfc3f69190a250565b610dec6110a0565b610df4611283565b60008111610e355760405162461bcd60e51b815260206004820152600e60248201526d043616e6e6f74207374616b6520360941b604482015260640161075b565b33600090815260208190526040902054811115610e8b5760405162461bcd60e51b8152602060048201526014602482015273496e73756666696369656e742062616c616e636560601b604482015260640161075b565b610e94336110ca565b610e9f333083611041565b3360009081526008602052604081208054839290610ebe908490611745565b925050819055508060096000828254610ed79190611745565b909155505060405181815233907f9e71bc8eea02a63969f509818f2dafb9254532904319f9dbda79b67bd34a5f3d90602001610839565b600033610624818585611041565b6000806000806000610f2d86610630565b6001600160a01b03871660009081526008602090815260408083205491839052909120549192509082906104b090610f66908490611745565b9450945094509450509193509193565b610f7e611100565b6001600160a01b038116610fa857604051631e4fbdf760e01b81526000600482015260240161075b565b61084b816111ee565b610fbe83838360016112ae565b505050565b6001600160a01b03838116600090815260016020908152604080832093861683529290522054600019811461103b578181101561102c57604051637dc7a0d960e11b81526001600160a01b0384166004820152602481018290526044810183905260640161075b565b61103b848484840360006112ae565b50505050565b6001600160a01b03831661106b57604051634b637e8f60e11b81526000600482015260240161075b565b6001600160a01b0382166110955760405163ec442f0560e01b81526000600482015260240161075b565b610fbe838383611383565b6002600654036110c357604051633ee5aeb560e01b815260040160405180910390fd5b6002600655565b60006110d582610630565b6001600160a01b03909216600090815260086020526040902060028101929092555042600190910155565b6005546001600160a01b03163314610abe5760405163118cdaa760e01b815233600482015260240161075b565b6001600160a01b0382166111575760405163ec442f0560e01b81526000600482015260240161075b565b610ba060008383611383565b61116b61138e565b6005805460ff60a01b191690557f5db9ee0a495bf2e6ff9c91a7834c1ba4fdd244a5e8aa4e537bd38aeae4b073aa335b6040516001600160a01b03909116815260200160405180910390a1565b6001600160a01b0382166111e257604051634b637e8f60e11b81526000600482015260240161075b565b610ba082600083611383565b600580546001600160a01b038381166001600160a01b0319831681179093556040519116919082907f8be0079c531659141344cd1fd0a4f28419497f9722a3daafe3b4186f6b6457e090600090a35050565b611248611283565b6005805460ff60a01b1916600160a01b1790557f62e78cea01bee320cd4e420270b5ea74000d11b0c9f74754ebdbfc544b05a25861119b3390565b600554600160a01b900460ff1615610abe5760405163d93c066560e01b815260040160405180910390fd5b6001600160a01b0384166112d85760405163e602df0560e01b81526000600482015260240161075b565b6001600160a01b03831661130257604051634a1406b160e11b81526000600482015260240161075b565b6001600160a01b038085166000908152600160209081526040808320938716835292905220829055801561103b57826001600160a01b0316846001600160a01b03167f8c5be1e5ebec7d5bd14f71427d1e84f3dd0314c0f7b2291e5b200ac8c7c3b9258460405161137591815260200190565b60405180910390a350505050565b610fbe8383836113b8565b600554600160a01b900460ff16610abe57604051638dfc202b60e01b815260040160405180910390fd5b6113c0611283565b610fbe8383836001600160a01b0383166113f15780600260008282546113e69190611745565b909155506114639050565b6001600160a01b038316600090815260208190526040902054818110156114445760405163391434e360e21b81526001600160a01b0385166004820152602481018290526044810183905260640161075b565b6001600160a01b03841660009081526020819052604090209082900390555b6001600160a01b03821661147f5760028054829003905561149e565b6001600160a01b03821660009081526020819052604090208054820190555b816001600160a01b0316836001600160a01b03167fddf252ad1be2c89b69c2b068fc378daa952ba7f163c4a11628f55a4df523b3ef836040516114e391815260200190565b60405180910390a3505050565b6000815180845260005b81811015611516576020818501810151868301820152016114fa565b506000602082860101526020601f19601f83011685010191505092915050565b60208152600061154960208301846114f0565b9392505050565b80356001600160a01b038116811461156757600080fd5b919050565b6000806040838503121561157f57600080fd5b61158883611550565b946020939093013593505050565b6000602082840312156115a857600080fd5b61154982611550565b6000806000606084860312156115c657600080fd5b6115cf84611550565b92506115dd60208501611550565b9150604084013590509250925092565b6000602082840312156115ff57600080fd5b5035919050565b6000806040838503121561161957600080fd5b50508035926020909101359150565b60c08152600061163b60c08301896114f0565b828103602084015261164d81896114f0565b91505060ff861660408301528460608301528360808301528260a0830152979650505050505050565b6000806040838503121561168957600080fd5b61169283611550565b91506116a060208401611550565b90509250929050565b600181811c908216806116bd57607f821691505b6020821081036116dd57634e487b7160e01b600052602260045260246000fd5b50919050565b634e487b7160e01b600052601160045260246000fd5b8181038181111561062a5761062a6116e3565b808202811582820484141761062a5761062a6116e3565b60008261174057634e487b7160e01b600052601260045260246000fd5b500490565b8082018082111561062a5761062a6116e356fea2646970667358221220a35cbc209fd55ee3f0dfb27495b6ed59c096adf0e1ee12fb3e1e508f12c59ecf64736f6c63430008140033",
  "devdoc": {
    "details": "Staking token with 12% APR rewards (inspired by Indonesian exchange PTU token)",
    "errors": {
      "ERC20InsufficientAllowance(address,uint256,uint256)": [
        {
          "details": "Indicates a failure with the `spender`s `allowance`. Used in transfers.",
          "params": {
            "allowance": "Amount of tokens a `spender` is allowed to operate with.",
            "needed": "Minimum amount required to perform a transfer.",
            "spender": "Address that may be allowed to operate on tokens without being their owner."
          }
        }
      ],
      "ERC20InsufficientBalance(address,uint256,uint256)": [
        {
          "details": "Indicates an error related to the current `balance` of a `sender`. Used in transfers.",
          "params": {
            "balance": "Current balance for the interacting account.",
            "needed": "Minimum amount required to perform a transfer.",
            "sender": "Address whose tokens are being transferred."
          }
        }
      ],
      "ERC20InvalidApprover(address)": [
        {
          "details": "Indicates a failure with the `approver` of a token to be approved. Used in approvals.",
          "params": {
            "approver": "Address initiating an approval operation."
          }
        }
      ],
      "ERC20InvalidReceiver(address)": [
        {
          "details": "Indicates a failure with the token `receiver`. Used in transfers.",
          "params": {
            "receiver": "Address to which tokens are being transferred."
          }
        }
      ],
      "ERC20InvalidSender(address)": [
        {
          "details": "Indicates a failure with the token `sender`. Used in transfers.",
          "params": {
            "sender": "Address whose tokens are being transferred."
          }
        }
      ],
      "ERC20InvalidSpender(address)": [
        {
          "details": "Indicates a failure with the `spender` to be approved. Used in approvals.",
          "params": {
            "spender": "Address that may be allowed to operate on tokens without being their owner."
          }
        }
      ],
      "EnforcedPause()": [
        {
          "details": "The operation failed because the contract is paused."
        }
      ],
      "ExpectedPause()": [
        {
          "details": "The operation failed because the contract is not paused."
        }
      ],
      "OwnableInvalidOwner(address)": [
        {
          "details": "The owner is not a valid owner account. (eg. `address(0)`)"
        }
      ],
      "OwnableUnauthorizedAccount(address)": [
        {
          "details": "The caller account is not authorized to perform an operation."
        }
      ],
      "ReentrancyGuardReentrantCall()": [
        {
          "details": "Unauthorized reentrant call."
        }
      ]
    },
    "events": {
      "Approval(address,address,uint256)": {
        "details": "Emitted when the allowance of a `spender` for an `owner` is set by a call to {approve}. `value` is the new allowance."
      },
      "Paused(address)": {
        "details": "Emitted when the pause is triggered by `account`."
      },
      "Transfer(address,address,uint256)": {
        "details": "Emitted when `value` tokens are moved from one account (`from`) to another (`to`). Note that `value` may be zero."
      },
      "Unpaused(address)": {
        "details": "Emitted when the pause is lifted by `account`."
      }
    },
    "kind": "dev",
    "methods": {
      "addMinter(address)": {
        "details": "Add a new minter",
        "params": {
          "minter": "Address to grant minting permission"
        }
      },
      "allowance(address,address)": {
        "details": "See {IERC20-allowance}."
      },
      "approve(address,uint256)": {
        "details": "See {IERC20-approve}. NOTE: If `value` is the maximum `uint256`, the allowance is not updated on `transferFrom`. This is semantically equivalent to an infinite approval. Requirements: - `spender` cannot be the zero address."
      },
      "balanceOf(address)": {
        "details": "See {IERC20-balanceOf}."
      },
      "burn(uint256)": {
        "details": "Destroys a `value` amount of tokens from the caller. See {ERC20-_burn}."
      },
      "burnFrom(address,uint256)": {
        "details": "Destroys a `value` amount of tokens from `account`, deducting from the caller's allowance. See {ERC20-_burn} and {ERC20-allowance}. Requirements: - the caller must have allowance for ``accounts``'s tokens of at least `value`."
      },
      "calculatePendingRewards(address)": {
        "details": "Calculate pending rewards for a user",
        "params": {
          "user": "Address to calculate rewards for"
        }
      },
      "claimRewards()": {
        "details": "Claim accumulated staking rewards"
      },
      "decimals()": {
        "details": "Returns the number of decimals used to get its user representation. For example, if `decimals` equals `2`, a balance of `505` tokens should be displayed to a user as `5.05` (`505 / 10 ** 2`). Tokens usually opt for a value of 18, imitating the relationship between Ether and Wei. This is the default value returned by this function, unless it's overridden. NOTE: This information is only used for _display_ purposes: it in no way affects any of the arithmetic of the contract, including {IERC20-balanceOf} and {IERC20-transfer}."
      },
      "getGlobalStats()": {
        "details": "Get global staking statistics"
      },
      "getStakingInfo(address)": {
        "details": "Get staking statistics for a user"
      },
      "getTokenInfo()": {
        "details": "Get token info"
      },
      "mint(address,uint256)": {
        "details": "Mint new tokens (restricted to minters)",
        "params": {
          "amount": "Amount to mint",
          "to": "Recipient address"
        }
      },
      "name()": {
        "details": "Returns the name of the token."
      },
      "owner()": {
        "details": "Returns the address of the current owner."
      },
      "pause()": {
        "details": "Pause token transfers and staking"
      },
      "paused()": {
        "details": "Returns true if the contract is paused, and false otherwise."
      },
      "protocolBurn(uint256,uint256)": {
        "details": "Monthly burn mechanism (0.01%-0.03% of trading value)",
        "params": {
          "amount": "Amount to burn",
          "reason": "0: user burn, 1: protocol burn"
        }
      },
      "removeMinter(address)": {
        "details": "Remove a minter",
        "params": {
          "minter": "Address to revoke minting permission"
        }
      },
      "renounceOwnership()": {
        "details": "Leaves the contract without owner. It will not be possible to call `onlyOwner` functions. Can only be called by the current owner. NOTE: Renouncing ownership will leave the contract without an owner, thereby disabling any functionality that is only available to the owner."
      },
      "stake(uint256)": {
        "details": "Stake PINTU tokens to earn 12% APR",
        "params": {
          "amount": "Amount to stake"
        }
      },
      "symbol()": {
        "details": "Returns the symbol of the token, usually a shorter version of the name."
      },
      "totalSupply()": {
        "details": "See {IERC20-totalSupply}."
      },
      "transfer(address,uint256)": {
        "details": "See {IERC20-transfer}. Requirements: - `to` cannot be the zero address. - the caller must have a balance of at least `value`."
      },
      "transferFrom(address,address,uint256)": {
        "details": "See {IERC20-transferFrom}. Emits an {Approval} event indicating the updated allowance. This is not required by the EIP. See the note at the beginning of {ERC20}. NOTE: Does not update the allowance if the current allowance is the maximum `uint256`. Requirements: - `from` and `to` cannot be the zero address. - `from` must have a balance of at least `value`. - the caller must have allowance for ``from``'s tokens of at least `value`."
      },
      "transferOwnership(address)": {
        "details": "Transfers ownership of the contract to a new account (`newOwner`). Can only be called by the current owner."
      },
      "unpause()": {
        "details": "Unpause token transfers and staking"
      },
      "unstake(uint256)": {
        "details": "Unstake PINTU tokens",
        "params": {
          "amount": "Amount to unstake"
        }
      }
    },
    "title": "PINTUToken",
    "version": 1
  },
  "userdoc": {
    "kind": "user",
    "methods": {},
    "notice": "Features staking mechanism with automatic reward calculation",
    "version": 1
  },
  "storageLayout": {
    "storage": [
      {
        "astId": 988,
        "contract": "contracts/PINTUToken.sol:PINTUToken",
        "label": "_balances",
        "offset": 0,
        "slot": "0",
        "type": "t_mapping(t_address,t_uint256)"
      },
      {
        "astId": 994,
        "contract": "contracts/PINTUToken.sol:PINTUToken",
        "label": "_allowances",
        "offset": 0,
        "slot": "1",
        "type": "t_mapping(t_address,t_mapping(t_address,t_uint256))"
      },
      {
        "astId": 996,
        "contract": "contracts/PINTUToken.sol:PINTUToken",
        "label": "_totalSupply",
        "offset": 0,
        "slot": "2",
        "type": "t_uint256"
      },
      {
        "astId": 998,
        "contract": "contracts/PINTUToken.sol:PINTUToken",
        "label": "_name",
        "offset": 0,
        "slot": "3",
        "type": "t_string_storage"
      },
      {
        "astId": 1000,
        "contract": "contracts/PINTUToken.sol:PINTUToken",
        "label": "_symbol",
        "offset": 0,
        "slot": "4",
        "type": "t_string_storage"
      },
      {
        "astId": 8,
        "contract": "contracts/PINTUToken.sol:PINTUToken",
        "label": "_owner",
        "offset": 0,
        "slot": "5",
        "type": "t_address"
      },
      {
        "astId": 2482,
        "contract": "contracts/PINTUToken.sol:PINTUToken",
        "label": "_paused",
        "offset": 20,
        "slot": "5",
        "type": "t_bool"
      },
      {
        "astId": 2601,
        "contract": "contracts/PINTUToken.sol:PINTUToken",
        "label": "_status",
        "offset": 0,
        "slot": "6",
        "type": "t_uint256"
      },
      {
        "astId": 16632,
        "contract": "contracts/PINTUToken.sol:PINTUToken",
        "label": "isMinter",
        "offset": 0,
        "slot": "7",
        "type": "t_mapping(t_address,t_bool)"
      },
      {
        "astId": 16637,
        "contract": "contracts/PINTUToken.sol:PINTUToken",
        "label": "stakingInfo",
        "offset": 0,
        "slot": "8",
        "type": "t_mapping(t_address,t_struct(StakingInfo)16644_storage)"
      },
      {
        "astId": 16646,
        "contract": "contracts/PINTUToken.sol:PINTUToken",
        "label": "totalStaked",
        "offset": 0,
        "slot": "9",
        "type": "t_uint256"
      },
      {
        "astId": 16648,
        "contract": "contracts/PINTUToken.sol:PINTUToken",
        "label": "totalRewardsPaid",
        "offset": 0,
        "slot": "10",
        "type": "t_uint256"
      }
    ],
    "types": {
      "t_address": {
        "encoding": "inplace",
        "label": "address",
        "numberOfBytes": "20"
      },
      "t_bool": {
        "encoding": "inplace",
        "label": "bool",
        "numberOfBytes": "1"
      },
      "t_mapping(t_address,t_bool)": {
        "encoding": "mapping",
        "key": "t_address",
        "label": "mapping(address => bool)",
        "numberOfBytes": "32",
        "value": "t_bool"
      },
      "t_mapping(t_address,t_mapping(t_address,t_uint256))": {
        "encoding": "mapping",
        "key": "t_address",
        "label": "mapping(address => mapping(address => uint256))",
        "numberOfBytes": "32",
        "value": "t_mapping(t_address,t_uint256)"
      },
      "t_mapping(t_address,t_struct(StakingInfo)16644_storage)": {
        "encoding": "mapping",
        "key": "t_address",
        "label": "mapping(address => struct PINTUToken.StakingInfo)",
        "numberOfBytes": "32",
        "value": "t_struct(StakingInfo)16644_storage"
      },
      "t_mapping(t_address,t_uint256)": {
        "encoding": "mapping",
        "key": "t_address",
        "label": "mapping(address => uint256)",
        "numberOfBytes": "32",
        "value": "t_uint256"
      },
      "t_string_storage": {
        "encoding": "bytes",
        "label": "string",
        "numberOfBytes": "32"
      },
      "t_struct(StakingInfo)16644_storage": {
        "encoding": "inplace",
        "label": "struct PINTUToken.StakingInfo",
        "members": [
          {
            "astId": 16639,
            "contract": "contracts/PINTUToken.sol:PINTUToken",
            "label": "stakedAmount",
            "offset": 0,
            "slot": "0",
            "type": "t_uint256"
          },
          {
            "astId": 16641,
            "contract": "contracts/PINTUToken.sol:PINTUToken",
            "label": "lastRewardTime",
            "offset": 0,
            "slot": "1",
            "type": "t_uint256"
          },
          {
            "astId": 16643,
            "contract": "contracts/PINTUToken.sol:PINTUToken",
            "label": "accumulatedRewards",
            "offset": 0,
            "slot": "2",
            "type": "t_uint256"
          }
        ],
        "numberOfBytes": "96"
      },
      "t_uint256": {
        "encoding": "inplace",
        "label": "uint256",
        "numberOfBytes": "32"
      }
    }
  }
}